:100000000C9435010C9466010C9466010C94660105
:100010000C9466010C9466010C9466010C946601C4
:100020000C9466010C9466010C9466010C946601B4
:100030000C9466010C9466010C9466010C946601A4
:100040000C9466010C940A080C9466010C946601E9
:100050000C9466010C9466010C9466010C943607AE
:100060000C9466010C9466010C9466010C94660174
:100070000C9466010C9466010C9466010C94660164
:100080000C94DC070C9466010C9466010C946601D8
:100090000C9466010C9466010C9466010C94660144
:1000A0000C9466010C9466010C94AE070C946601E6
:1000B0000C9466010C9466010C9466010C94800704
:1000C0000C9466010C9466010C9466010C94660114
:1000D0000C9466010C9466010C9466010C94660104
:1000E0000C9466010C9481040C9445020C943B0220
:1000F0000C940E020C9429020C944E020C943702BC
:100100000C9499030C9414020C9429060C942D025F
:100110000C9480040C9423020C9496030C948E038C
:100120000C9420020C94C00D0C9441020C94180203
:100130000C9453020C9449020C944F020C94330219
:100140000C9492030C941C02000021002400270050
:100150002A002D00300033000101000004010701D6
:100160000A0100002200250028002B002E0031008B
:10017000340002010000050108010B01000020000D
:100180002300260029002C002F003200000100006F
:10019000030106010901050505050705080808080A
:1001A000020202020A0A080804040404010101010F
:1001B000010101010303030303030303040707070A
:1001C0000C0C0C0C0C0C0C0C0202020206060606AF
:1001D000060606060B0B0B0B0B0B0B0B010210207C
:1001E000200808102040102040800201020108046D
:1001F0000201010204081020408080402010080401
:100200000201800402018040201008040201080459
:10021000020101020408102040800102040810209D
:10022000408000000A0B02090C0D0E0807030401B0
:1002300000000000000000000000000000000000BE
:10024000000000000000000000000000000012118B
:10025000100000000000000000000000000000008E
:100260000000000000000000C00D11241FBECFEFF1
:10027000D1E2DEBFCDBF00E00CBF13E0A0E0B2E0F2
:10028000E2E7F2E200E00BBF02C007900D92AC3350
:10029000B107D9F724E0ACE3B3E001C01D92A23767
:1002A000B207E1F711E0C5E3D1E000E006C0219715
:1002B0000109802FFE010E941411C433D10780E090
:1002C0000807A9F70E9438080C9437110C94000015
:1002D0008F929F92AF92BF92FF920F931F93CF93F3
:1002E000DF93F09057042FE22F1508F44CC02091B3
:1002F000590408E512E0021B110927FD1395000FB0
:10030000111F000F111F20915804C8E8D0E0C21B34
:10031000D10927FDD395CC0FDD1FCC0FDD1F4E017A
:100320000D2E000CAA08BB089801012E000C440BEE
:10033000550B281939094A095B09DC010E947F0E17
:1003400024EB30E040E050E00E94550E820E931EF8
:10035000A41EB51E8C169D062CF0E8018016910691
:100360000CF4E4012297CC0FDD1F2FB7F8948F2DEA
:1003700090E0FC01EE0FFF1FE80FF91FE953FC4F5F
:10038000D283C1832FBFDF91CF911F910F91FF9037
:10039000BF90AF909F908F90089596E0899FD00175
:1003A0001124A85ABC4F90967C936E935F9791E06E
:1003B00091969C939197E091C503F091C60390911B
:1003C000C403992339F0309751F0811108C080910E
:1003D00074031994309719F05C968C91FACF0895B4
:1003E0008150823108F05AC0E82FF0E08827E450AD
:1003F000FE4F8F4F0C9414111C0220020E021402A7
:1004000018024E02230229022D02330237023B0258
:10041000410245024E0249024F0253028091800080
:100420008F77809380000895809180008F7DF9CF31
:1004300080918000877FF5CF84B58F7784BD089544
:1004400084B58F7DFBCF8091B0008F778093B00013
:1004500008958091B0008F7DF9CF809190008F77C3
:10046000809390000895809190008F7DF9CF8091C6
:100470009000877FF5CF8091A0008F778093A000B8
:1004800008958091A0008F7DF9CF8091A000877F93
:10049000F5CF809120018F7780932001089580917E
:1004A00020018F7DF9CF80912001877FF5CFCF93F9
:1004B000DF93282F30E0F901EE5DFD4F8491F901C3
:1004C000E452FE4FD491F901EA56FE4FC491CC2379
:1004D000A1F081110E94F001EC2FF0E0EE0FFF1F60
:1004E000E458FE4FA591B491EC91ED2381E090E0AA
:1004F00009F480E0DF91CF91089580E090E0FACF99
:100500001F93CF93DF93282F30E0F901EE5DFD4F6D
:100510008491F901E452FE4FD491F901EA56FE4F5D
:10052000C491CC23A9F0162F81110E94F001EC2F69
:10053000F0E0EE0FFF1FEE59FE4FA591B4918FB77B
:10054000F894EC91111108C0D095DE23DC938FBF95
:10055000DF91CF911F910895DE2BF8CFCF93DF93DA
:1005600090E0FC01E452FE4F24918A569E4FFC011C
:1005700084918823C9F090E0880F991FFC01E85B03
:10058000FE4FA591B491FC01EE59FE4FC591D49157
:1005900061110DC09FB7F8948C91209582238C93A4
:1005A0008881282328839FBFDF91CF9108956230EF
:1005B00051F49FB7F8943C91822F809583238C93BC
:1005C000E8812E2BEFCF8FB7F894EC912E2B2C9344
:1005D0008FBFEACF90917B00977F90937B008653EB
:1005E000806480937C0080917A00806480937A009C
:1005F00080917A0086FDFCCF8091780090917900FF
:1006000008953FB7F8948091540390915503A091B9
:100610005603B091570326B5A89B05C02F3F19F08C
:100620000196A11DB11D3FBFBA2FA92F982F882772
:10063000BC01CD01620F711D811D911D42E0660F4D
:10064000771F881F991F4A95D1F708952FB7F894FF
:100650006091500370915103809152039091530324
:100660002FBF08950F931F93CF93DF93C82FD62FDB
:1006700086E0C89FF0011124E85AFC4F11A2878D33
:1006800090A181309105F1F058F082309105F1F19F
:10069000039709F440C0DF91CF911F910F91089506
:1006A0006623C9F361E070E08C2F0E94CD010E94A7
:1006B00026036093B0037093B1038093B2039093C9
:1006C000B303E9CF0E9426030091B0031091B10358
:1006D0002091B2033091B303AB01BC01401B510B1D
:1006E000620B730B8091C2039091C303B0E0A0E052
:1006F00084179507A607B70748F462E070E08C2FCF
:10070000DF91CF911F910F910C94CD0163E070E0C8
:10071000D111C1CFF4CF70E060E0F1CF862F642F0C
:100720000C94AE02862F642F0C948002862F0C94BA
:100730005702AF92BF92CF92DF92EF92FF920F9348
:100740001F93CF93DF936C017B018B01040F151F67
:10075000EB015E01AE18BF08C017D10759F06991CF
:10076000D601ED91FC910190F081E02DC601199523
:10077000892B79F7C501DF91CF911F910F91FF90E0
:10078000EF90DF90CF90BF90AF900895AF92BF925F
:10079000CF92DF92EF92FF920F931F93CF93DF934D
:1007A0006B017A01EC01C35CDC4F28813CE0389F8F
:1007B0008001399F100D1124A0903C03B12C27FF1C
:1007C0001FC0FB011182108288818F5F888388811E
:1007D0009801280F311D87FD3A95F6012A153B0532
:1007E0001CF488818C30C4F180819181049680341E
:1007F0009C4908F473C0F60180819181049670C011
:1008000088819801280F311D87FD3A952A153B05EF
:10081000DCF68881A801480F511D87FD5A95FA0121
:10082000EE0FFF1FE40FF51FE953FC4F808186FF99
:10083000CBCF8881F801E80FF11D87FDFA95CF0134
:10084000EE0FFF1FE80FF91FE953FC4F808160E0B6
:100850008F730E948002B8CF808191812881A80186
:10086000420F511D27FD5A959A01FA01EE0FFF1F05
:10087000E20FF31FE953FC4F21813281820F931F56
:10088000F7019183808388819801280F311D87FDAE
:100890003A95F901EE0FFF1FE20FF31FE953FC4FEA
:1008A000808186FF22C08881080F111D87FD1A955F
:1008B000F801EE0FFF1FE00FF11FE953FC4F80819D
:1008C00061E08F73DF91CF911F910F91FF90EF90B7
:1008D000DF90CF90BF90AF900C94800280E49CE9B1
:1008E000F701918380838FEF8883DF91CF911F91F0
:1008F0000F91FF90EF90DF90CF90BF90AF90089551
:10090000089590E080E00895FC0101900020E9F74F
:100910003197AF01481B590BBC018AE594E00C9458
:1009200099038F929F92AF92BF920F931F93CF9391
:10093000DF93CDB7DEB7A1970FB6F894DEBF0FBE39
:10094000CDBF19A2423008F44AE08E010F5D1F4F5F
:10095000842E912CB12CA12CA50194010E94870E0C
:10096000E62FB901CA01EA30F4F4E05DD801EE9354
:100970008D01232B242B252B79F790E080E0109715
:1009800019F0CD010E948404A1960FB6F894DEBF41
:100990000FBECDBFDF91CF911F910F91BF90AF9050
:1009A0009F908F900895E95CE1CF0C948404CF93DD
:1009B000DF93EC0160E08E810E94800261E08E8115
:1009C0000E94800260E08E810E9480028BE891E0AC
:1009D0000197F1F7DF91CF910895CF92DF92EF92D7
:1009E000FF920F931F93CF93DF936C017C0187E0FD
:1009F000E80EF11CD0E0C0E0062F10E0B8010C2E8C
:100A000002C0759567950A94E2F76170F7018191CC
:100A10007F010E9480022196C430D10579F7C6017A
:100A2000DF91CF911F910F91FF90EF90DF90CF90CA
:100A30000C94D704CF92DF92EF92FF920F931F9303
:100A4000CF93DF93EC01F62E642F8C810E948002FD
:100A50008D818F3F19F060E00E9480020F2D10E021
:100A60008F8584FF25C06E0187E0C80ED11CF12C54
:100A7000E12CB8010E2C02C0759567950A94E2F737
:100A80006170F60181916F010E948002FFEFEF1A01
:100A9000FF0A88E0E816F10461F7CE01DF91CF91FB
:100AA0001F910F91FF90EF90DF90CF900C94D7049F
:100AB000B80184E0759567958A95E1F7CE010E94AB
:100AC000ED046F2DCE01DF91CF911F910F91FF901B
:100AD000EF90DF90CF900C94ED0440E0682F8AE512
:100AE00094E00C941A0581E00E946D058BE39FE170
:100AF0000197F1F70895CF93DF93613029F090913A
:100B0000690498609093690460936D0410926E0478
:100B100090E490936F0480937004805C80937104E0
:100B200061E080915E040E94AE0280915F048F3F7D
:100B300019F061E00E94AE0261E0809160040E94C1
:100B4000AE02CAE5D4E09E012A5534408091690482
:100B500084FD0BC084E090E021962817390744F407
:100B600061E08E810E94AE02EECF88E090E0F4CF8B
:100B70008BE39DE00197F1F760E080915E040E94B5
:100B8000800260E0809160040E94800280915F0496
:100B90008F3F19F060E00E9480028091690484FD1B
:100BA00034C063E08AE594E00E94ED04CBE4D6E42F
:100BB000CE010197F1F763E08AE594E00E94ED042D
:100BC0002197F1F763E08AE594E00E94ED0483E564
:100BD00092E00197F1F762E08AE594E00E94ED046B
:100BE0008091690480620E946D0584E080936A04AC
:100BF0008CE00E946D050E94730582E080936B0477
:100C000086E0DF91CF910C946D0580620E946D05A6
:100C10008BE496E40197F1F78091690480620E9469
:100C20006D0583E592E00197F1F780916904806298
:100C30000E946D05D5CF90916D04891710F08FEF4C
:100C4000890FE82FF0E0E65AFB4F848980680C9406
:100C50006D0541E00E941A0581E090E00895CF9271
:100C6000DF92EF92FF926C01990FEE08FF08F7FEFA
:100C700016C041E06DE28AE594E00E941A056627FD
:100C80007727CB016C197D098E099F094AE00E94E4
:100C900091040196FF90EF90DF90CF9008954AE085
:100CA000C701B601FF90EF90DF90CF900C949104B4
:100CB0004F925F926F927F928F929F92AF92BF926C
:100CC000CF92DF92EF92FF920F931F93CF936B011E
:100CD0007C01742EAC019B010E94EF10882399F0D7
:100CE00089E292E0CF911F910F91FF90EF90DF90FA
:100CF000CF90BF90AF909F908F907F906F905F90BC
:100D00004F900C94840446015701E894B7F82FEFF4
:100D10003FEF4FE75FE7C501B4010E94EF1081117B
:100D20000DC02FEF3FEF4FE75FE7C501B4010E9411
:100D3000250F18161CF48DE292E0D4CF2FEF3FEF71
:100D40004FE75FE4C701B6010E947D1018161CF43E
:100D500081E392E0C7CF2FEF3FEF4FE75FECC70192
:100D6000B6010E94250F87FDF3CF20E030E0A901F6
:100D7000C701B6010E94250F10E000E087FF0CC0FC
:100D800041E06DE28AE594E00E941A05F7FAF094DA
:100D9000F7F8F09401E010E0C0E060E070E080E07F
:100DA0009FE37C1641F020E030E040E251E40E94F5
:100DB0002A0FCF5FF6CFA70196010E94B90E4B0113
:100DC0005C010E949C0F2B013C014AE00E949104AF
:100DD000080F191FCC23C9F1C301B2010E94CB0F28
:100DE0009B01AC01C501B4010E94B80E4B015C012E
:100DF00041E06EE28AE594E00E941A050F5F1F4F02
:100E0000C15018F120E030E040E251E4C501B401E6
:100E10000E9482102B013C010E949C0F4B01B12CBF
:100E2000A12C4AE0C501B4010E949104080F191FCA
:100E3000C501B4010E94CB0F9B01AC01C301B201FB
:100E40000E94B80E4B015C01DBCFC801CF911F910E
:100E50000F91FF90EF90DF90CF90BF90AF909F9059
:100E60008F907F906F905F904F9008951F920F9298
:100E70000FB60F9211242F933F938F939F93AF93AD
:100E8000BF938091500390915103A0915203B09170
:100E9000530330914F0323E0230F2D3758F501966C
:100EA000A11DB11D20934F038093500390935103D4
:100EB000A0935203B0935303809154039091550330
:100EC000A0915603B09157030196A11DB11D8093C7
:100ED000540390935503A0935603B0935703BF91C7
:100EE000AF919F918F913F912F910F900FBE0F90D7
:100EF0001F90189526E8230F0296A11DB11DD2CF91
:100F00001F920F920FB60F9211240BB60F922F93D0
:100F10003F934F935F936F937F938F939F93AF9381
:100F2000BF93EF93FF9348E251E064E271E090E0F9
:100F300080E00E94C603FF91EF91BF91AF919F9116
:100F40008F917F916F915F914F913F912F910F9072
:100F50000BBE0F900FBE0F901F9018951F920F920F
:100F60000FB60F9211240BB60F922F933F934F930E
:100F70005F936F937F938F939F93AF93BF93EF9301
:100F8000FF9348EA50E064EA70E083E090E00E945A
:100F9000C603FF91EF91BF91AF919F918F917F9188
:100FA0006F915F914F913F912F910F900BBE0F90DA
:100FB0000FBE0F901F9018951F920F920FB60F92B1
:100FC00011240BB60F922F933F934F935F936F9320
:100FD0007F938F939F93AF93BF93EF93FF9348E9D2
:100FE00050E064E970E082E090E00E94C603FF9167
:100FF000EF91BF91AF919F918F917F916F915F9191
:101000004F913F912F910F900BBE0F900FBE0F90FD
:101010001F9018951F920F920FB60F9211240BB6C6
:101020000F922F933F934F935F936F937F938F9381
:101030009F93AF93BF93EF93FF9348E850E064E82A
:1010400070E081E090E00E94C603FF91EF91BF91B4
:10105000AF919F918F917F916F915F914F913F9150
:101060002F910F900BBE0F900FBE0F901F901895F1
:10107000789484B5826084BD84B5816084BD85B573
:10108000826085BD85B5816085BD80916E0081607F
:1010900080936E0010928100809181008260809325
:1010A0008100809181008160809381008091800027
:1010B0008160809380008091B10084608093B10052
:1010C0008091B00081608093B00080919100826037
:1010D0008093910080919100816080939100809134
:1010E00090008160809390008091A1008260809345
:1010F000A1008091A10081608093A1008091A00057
:1011000081608093A0008091210182608093210101
:101110008091210181608093210180912001816073
:101120008093200180917A00846080937A0080917E
:101130007A00826080937A0080917A008160809347
:101140007A0080917A00806880937A001092C100C2
:1011500061E083E00E94AE0261E084E00E94AE02A2
:1011600061E085E00E94AE0280915704803308F070
:1011700052C061E086E00E94AE0280915704282FA1
:1011800030E0F901EE0FFF1FE20FF31FE953FC4FB0
:101190009081907C9660908310925804109259042C
:1011A0002CE0622F0E94F410829FB001112430E0E5
:1011B00020E0AB01420F531FFA01EE0FFF1FE40FB7
:1011C000F51FE953FC4F908196FD17C02F5F3F4FED
:1011D0002C30310571F7813009F056C01092800033
:1011E00082E0809381001092850010928400B19A71
:1011F00080916F00826080936F00E09157048E2F82
:1012000090E0FC01EE0FFF1FE80FF91FE953FC4FC0
:1012100080818064808364E084E10E947B050E9479
:10122000730522242A94322C81E08093C4030E9407
:1012300026030091B4031091B5032091B6033091B9
:10124000B703AB01BC01401B510B620B730B8091C8
:10125000C0039091C103B0E0A0E084179507A607F2
:10126000B70708F077C3C0E08091BE03C817C0F588
:10127000E091BA03F091BB03EC0FF11D62E08081B5
:101280000E94AE02CF5FF0CF823061F410929000E6
:1012900080939100109295001092940088BB8093E7
:1012A0007100ABCF833069F41092A00082E080938C
:1012B000A1001092A5001092A40089BB8093720037
:1012C0009CCF81119ACF1092200182E0809321015E
:1012D00010922501109224018ABB809373008DCF58
:1012E00010E08091BF03181708F061C0E12EF12CC7
:1012F000E091BC03F091BD03EE0DFF1D61E0808124
:101300000E94AE02E091BC03F091BD03EE0DFF1D03
:1013100060E080810E94800281E090E0A0E0B0E087
:10132000012E04C0880F991FAA1FBB1F0A94D2F771
:101330005C016C01C094D09400E08091BE0308175A
:10134000F8F4C02FD0E0E091BA03F091BB03EC0FAA
:10135000FD1F80810E9457022496CC0FDD1FC85AC2
:10136000DC4F892B41F4888199818A299B299983B3
:1013700088830F5FE2CF888199818C219D21F7CFEF
:10138000E091BC03F091BD03EE0DFF1D61E0808193
:101390000E9480028091BC039091BD03E80EF91E6B
:1013A00060E0F70180810E94AE021F5F9ACF08E5DE
:1013B00013E0F801878D90A1892B31F4148E8FEF03
:1013C0009FEF968F858F11A2369693E0E439F90747
:1013D00089F7F12C8091BE03F81608F050C0E12C7B
:1013E000CF2DD0E0CC0FDD1FC05ADC4F2091BF03C2
:1013F000E21608F042C0688179810E2C02C0769511
:1014000067950A94E2F7F29E900111242E0D311D8A
:10141000E8E5F3E080E0458D568D2417350709F4A3
:10142000ADC38F5F36968A30B1F760FF24C0E8E520
:10143000F3E090E080E0448D411118C0E091B803E2
:10144000F091B903E20FF31F408156E0589FF0017D
:10145000599FF00D1124E85AFC4F448F368F258F89
:1014600010A2178E61E00E94320305C001963696E5
:101470008A30910501F7E394B9CFF394ABCFC0E084
:10148000F80181A18111C82F0A5F1F4FF3E00439D1
:101490001F07B1F70E9426036093B4037093B5034E
:1014A0008093B6039093B703CC2309F453C2809181
:1014B0007903882309F44EC28091770390917803D1
:1014C000019709F047C280917403811146C280914F
:1014D0004E03811152C0C0914803D09149030E942C
:1014E0002603009141031091420320914303309160
:1014F0004403601B710B820B930B623371058105F2
:101500009105D8F10E942603609341037093420332
:1015100080934303909344032196D0934903C0934F
:101520004803EC976CF080914A0390914B03109222
:10153000490310924803019690934B0380934A030A
:1015400080914A0390914B03CC976CF080914C03AF
:1015500090914D0310924B0310924A030196909381
:101560004D0380934C0380914C0390914D03489719
:1015700024F010924D0310924C03209148033091B7
:101580004903809107029091080228173907B9F49E
:1015900020914A0330914B0380910B0290910C02F1
:1015A0002817390761F420914C0330914D03809145
:1015B0000F02909110022817390709F457C080E0F4
:1015C0000E941B068CE892E00E94D50480914C0397
:1015D00090914D030A9724F483E992E00E94D50488
:1015E00080914C0390914D030E942F068CE193E073
:1015F0000E94D50480914A0390914B030A9724F4EA
:1016000083E992E00E94D50480914A0390914B03B4
:101610000E942F068CE193E00E94D504809148033C
:10162000909149030A9724F483E992E00E94D5043B
:1016300080914803909149030E942F0680914803AE
:1016400090914903909308028093070280914A0386
:1016500090914B0390930C0280930B0280914C036A
:1016600090914D039093100280930F02C091460316
:10167000D09147038091090290910A02C817D907B7
:1016800051F00E947305D0930A02C0930902309270
:1016900008022092070286E30E94EA028C0187E397
:1016A0000E94EA025C0188E30E94EA02EC0128E25F
:1016B00030E0D8010E941C112FEF33E040E050E0F1
:1016C0000E94550ECA01B901665F7F4F8F4F9F4F31
:1016D0000E94CD0F6B017C0124E630E0D5010E9411
:1016E0001C112FEF33E040E050E00E94550ECA017C
:1016F000B9010E94CD0F2B013C0124E630E0DE0150
:101700000E941C112FEF33E040E050E00E94550E84
:10171000CA01B9010E94CD0F4B015C0120E030E00D
:1017200040EF51E4C301B2010E94250F87FF42C17F
:1017300020E030E040EA51E4C501B4010E947D1090
:1017400018160CF037C181E0809345038091450362
:1017500060E0882381F00E94260320E931E040E028
:1017600050E00E94870E21E0683C710581059105DB
:1017700008F020E0622F84E00E94800280914C03F8
:1017800090914D03069761E00C9708F060E083E0CC
:101790000E94800220E030E048EC51E4C701B6012D
:1017A0000E94250F87FF09C160E085E00E9480024A
:1017B00090E080E00E94680180914E03811153C146
:1017C0008091460390914703892B81F581E00E9427
:1017D0001B0685E992E00E94D50441E0C701B601ED
:1017E0000E9458068CE992E00E94D50420E030E087
:1017F00048EC51E4C701B6010E94250F87FFF4C0F1
:1018000060E085E00E94800290E080E00E94680134
:1018100082E00E941B0684EA92E00E94D50483E0E5
:101820000E941B0685EB92E00E94D504809146033E
:1018300090914703019771F581E00E941B0689EFA3
:1018400092E00E94D50482E00E941B0640E0C301A2
:10185000B2010E94580688E093E00E94D50483E01C
:101860000E941B0620E030E040EF51E4C301B201CA
:101870000E94250F87FDEBC020E030E04CE852E4E9
:10188000C301B2010E94250F87FFE4C084E492E007
:101890000E94D5048091460390914703029771F509
:1018A00081E00E941B0680E193E00E94D50482E063
:1018B0000E941B0640E0C501B4010E94580688E062
:1018C00093E00E94D50483E00E941B0620E030E0F4
:1018D00040EF51E4C501B4010E94250F87FDBDC052
:1018E00020E030E04CE852E4C501B4010E94250F2D
:1018F00087FFB6C080E792E00E94D5040E940103F2
:101900004B015C0186E9C82ED12CE12CF12C0E9400
:101910000103681979098A099B09683E73408105AA
:101920009105A8F321E0C21AD108E108F10858EEA8
:10193000850E53E0951EA11CB11CC114D104E10415
:10194000F10429F780E090E0892B09F46DCC0E9426
:1019500000006ACC1092C403BACD833451F4909144
:101960004E0321E0922790934E0330920A02209278
:10197000090290914E03911100CE8C3491F4809124
:10198000460390914703029663E070E00E940011C5
:10199000909347038093460330920A0220920902F3
:1019A00096CD823509F097CD8091460390914703FB
:1019B0000196EACF10924503C9CE20E030E040EF17
:1019C00051E4C701B6010E94250F61E087FF06C000
:1019D00085E00E9480028AE590E0ECCE85E00E94DE
:1019E000800284EB90E0E6CE20E030E040EF51E46E
:1019F000C701B6010E94250F61E087FF14C085E092
:101A00000E9480028AE590E00E94680182E00E94C4
:101A10001B0686EC92E00E94D50483E00E941B0620
:101A200087ED92E001CF85E00E94800284EB90E098
:101A30000E94680182E00E941B0686EC92E00E94F0
:101A4000D50483E00E941B0688EE92E0EDCE85E38C
:101A500092E01ECF83E592E01BCF82E692E04CCF6E
:101A60008EE792E049CF89E30E94EA02EC018AE323
:101A70000E94EA029C01CE016BE270E00E9400111C
:101A8000FB016831710514F0E7E1F0E0F7FF02C0F7
:101A9000F0E0E0E0C90161E170E00E9400116C3308
:101AA000710514F06BE370E077FF02C070E060E056
:101AB0008091110290911202E817F90781F0F093DA
:101AC0001202E0931102F0934D03E0934C03109245
:101AD0004903109248033092100220920F02809125
:101AE0000D0290910E028617970781F070930E02F7
:101AF00060930D0270934B0360934A031092490365
:101B00001092480330920C0220920B0281E00E9456
:101B10001B068EE193E00E94D50482E00E941B0622
:101B20008CE892E00E94D50480914C0390914D0383
:101B30000A9724F483E992E00E94D50480914C0333
:101B400090914D030E942F068CE193E00E94D504F2
:101B500080914A0390914B030A9724F483E992E021
:101B60000E94D50480914A0390914B030E942F0656
:101B700083E00E941B0681E393E0BECE617073CCCC
:101B8000CF9310925D0410925C0481E292E09093F6
:101B90005B0480935A048FE180935E04CFEFC0937F
:101BA0005F0483E2809360048DE2809361048FE29E
:101BB0008093620481E38093630483E380936404ED
:101BC00010926504109266041092670410926804E3
:101BD0001092690461E080E10E947B0580913C03E2
:101BE000803308F05FC091E0980F90933C0380939E
:101BF000570490E0FC01EE0FFF1FE80FF91FE953B7
:101C0000FC4F88EB9BE09283818310925A031092E1
:101C10005E0310925D0310925F0387E192E0909360
:101C2000590380935803E4E7F3E01082148213828F
:101C30001582369683E0E03BF807B9F783E092E03F
:101C40009093BB038093BA0380E092E09093BD032E
:101C50008093BC0381E08093BE0383E08093BF0345
:101C600084E092E09093B9038093B8038AE090E017
:101C70009093C1038093C00384EF91E09093C303DA
:101C80008093C2031092C6031092C5031092B4034E
:101C90001092B5031092B6031092B7031092C403CA
:101CA000CF910895C0935704B0CF052E97FB1EF433
:101CB00000940E946C0E57FD07D00E94870E07FC0F
:101CC00003D04EF40C946C0E5095409530952195B0
:101CD0003F4F4F4F5F4F0895909580957095619558
:101CE0007F4F8F4F9F4F08950E94A90EA59F900D83
:101CF000B49F900DA49F800D911D11240895B7FFEE
:101D00000C94740E0E94740E821B930B0895A1E232
:101D10001A2EAA1BBB1BFD010DC0AA1FBB1FEE1F65
:101D2000FF1FA217B307E407F50720F0A21BB30BB0
:101D3000E40BF50B661F771F881F991F1A9469F72C
:101D400060957095809590959B01AC01BD01CF0188
:101D50000895A29FB001B39FC001A39F700D811D84
:101D60001124911DB29F700D811D1124911D0895A4
:101D70005058BB27AA270E94D00E0C9443100E94F3
:101D8000351038F00E943C1020F039F49F3F19F4D0
:101D900026F40C9432100EF4E095E7FB0C942C1012
:101DA000E92F0E94541058F3BA176207730784078B
:101DB000950720F079F4A6F50C9476100EF4E095D2
:101DC0000B2EBA2FA02D0B01B90190010C01CA01F5
:101DD000A0011124FF27591B99F0593F50F4503EA0
:101DE00068F11A16F040A22F232F342F4427585F92
:101DF000F3CF469537952795A795F0405395C9F7AA
:101E00007EF41F16BA0B620B730B840BBAF0915061
:101E1000A1F0FF0FBB1F661F771F881FC2F70EC000
:101E2000BA0F621F731F841F48F4879577956795D3
:101E3000B795F7959E3F08F0B0CF9395880F08F0BF
:101E40009927EE0F9795879508950E94081008F43A
:101E500081E008950E943E0F0C9443100E943C10B4
:101E600058F00E94351040F029F45F3F29F00C949F
:101E70002C1051110C9477100C9432100E945410B5
:101E800068F39923B1F3552391F3951B550BBB27A9
:101E9000AA2762177307840738F09F5F5F4F220FEE
:101EA000331F441FAA1FA9F335D00E2E3AF0E0E8E5
:101EB00032D091505040E695001CCAF72BD0FE2F2F
:101EC00029D0660F771F881FBB1F261737074807C3
:101ED000AB07B0E809F0BB0B802DBF01FF2793587B
:101EE0005F4F3AF09E3F510578F00C942C100C9403
:101EF00077105F3FE4F3983ED4F386957795679526
:101F0000B795F7959F5FC9F7880F911D96958795AF
:101F100097F90895E1E0660F771F881FBB1F6217CE
:101F200073078407BA0720F0621B730B840BBA0B8C
:101F3000EE1F88F7E09508950E945C1088F09F5787
:101F400098F0B92F9927B751B0F0E1F0660F771FDD
:101F5000881F991F1AF0BA95C9F714C0B13091F0D3
:101F60000E947610B1E008950C947610672F782FB8
:101F70008827B85F39F0B93FCCF386957795679598
:101F8000B395D9F73EF490958095709561957F4F04
:101F90008F4F9F4F0895E89409C097FB3EF49095AA
:101FA0008095709561957F4F8F4F9F4F9923A9F032
:101FB000F92F96E9BB279395F695879577956795C1
:101FC000B795F111F8CFFAF4BB0F11F460FF1BC005
:101FD0006F5F7F4F8F4F9F4F16C0882311F096E998
:101FE00011C0772321F09EE8872F762F05C0662346
:101FF00071F096E8862F70E060E02AF09A95660FFF
:10200000771F881FDAF7880F9695879597F90895B7
:10201000990F0008550FAA0BE0E8FEEF16161706F9
:10202000E807F907C0F012161306E407F50798F061
:10203000621B730B840B950B39F40A2661F0232B7A
:10204000242B252B21F408950A2609F4A140A695F6
:102050008FEF811D811D089597F99F6780E870E0DB
:1020600060E008959FEF80EC089500240A9416160E
:10207000170618060906089500240A941216130676
:10208000140605060895092E0394000C11F4882304
:1020900052F0BB0F40F4BF2B11F460FF04C06F5F20
:1020A0007F4F8F4F9F4F089557FD9058440F551FF6
:1020B00059F05F3F71F04795880F97FB991F61F0CA
:1020C0009F3F79F087950895121613061406551F41
:1020D000F2CF4695F1DF08C0161617061806991FAD
:1020E000F1CF86957105610508940895E894BB27A2
:1020F00066277727CB0197F908950E94081008F406
:102100008FEF08950E9495100C9443100E94351093
:1021100038F00E943C1020F0952311F00C942C1004
:102120000C94321011240C9477100E94541070F308
:10213000959FC1F3950F50E0551F629FF001729F6C
:10214000BB27F00DB11D639FAA27F00DB11DAA1F7B
:10215000649F6627B00DA11D661F829F2227B00DC8
:10216000A11D621F739FB00DA11D621F839FA00D53
:10217000611D221F749F3327A00D611D231F849FA3
:10218000600D211D822F762F6A2F11249F575040FA
:102190009AF0F1F088234AF0EE0FFF1FBB1F661F75
:1021A000771F881F91505040A9F79E3F510580F03E
:1021B0000C942C100C9477105F3FE4F3983ED4F30A
:1021C000869577956795B795F795E7959F5FC1F7E2
:1021D000FE2B880F911D9695879597F908950E947B
:1021E0000810880B990B0895991B79E004C0991F7A
:1021F000961708F0961B881F7A95C9F78095089561
:1022000097FB072E16F4009407D077FD09D00E94A3
:10221000231107FC05D03EF4909581959F4F0895BA
:10222000709561957F4F0895EE0FFF1F881F8BBF3C
:102230000790F691E02D19940E94A90EB7FF08951A
:10224000821B930B0895AA1BBB1B51E107C0AA1F59
:10225000BB1FA617B70710F0A61BB70B881F991F47
:102260005A95A9F780959095BC01CD010895F894F1
:02227000FFCF9E
:10227200131415124C4352FFFFFFFFFFFFFFFFFF36
:10228200FFFFFF000000008E039203960300000090
:102292000029069903810480046E616E00696E66EE
:1022A200006F76660045737461646F3A205365630C
:1022B2006F20200045737461646F3A204E6F726D17
:1022C200616C0045737461646F3A2048756D656492
:1022D2006F0045737461646F3A2042616A6F200037
:1022E20045737461646F3A204D6564696F0045738C
:1022F2007461646F3A204C6C656E6F00486F726156
:102302003A2000300054656D703A200020432020AE
:102312002020200056656E74696C61646F723A20E9
:102322004F4646200056656E74616E613A204365E1
:1023320072726164610056656E74696C61646F7279
:102342003A204F4E20200056656E74616E613A202D
:1023520053656D692020200056656E74616E613A86
:1023620020416269657274610048756D65646164DB
:10237200205375656C6F3A00202520202020200014
:102382004E6976656C2054616E7175653A003D3D0B
:1023920020414A555354452052454C4F4A203D3D19
:0C23A2000053616C6972203D2052000065
:00000001FF
