:100000000C9422010C9453010C9453010C94530151
:100010000C9453010C9453010C9453010C94530110
:100020000C9453010C9453010C9453010C94530100
:100030000C9453010C9453010C9453010C945301F0
:100040000C9453010C941D060C9453010C94530111
:100050000C9453010C9453010C9453010C944905D6
:100060000C9453010C9453010C9453010C945301C0
:100070000C9453010C9453010C9453010C945301B0
:100080000C94EF050C9453010C9453010C94530100
:100090000C9453010C9453010C9453010C94530190
:1000A0000C9453010C9453010C94C1050C9453010E
:1000B0000C9453010C9453010C9453010C9493052C
:1000C0000C9453010C9453010C9453010C94530160
:1000D0000C9453010C9453010C9453010C94530150
:1000E0000C9453010C940E020C9451020C9439029E
:1000F0000C944D020C945F020C9455020C94430234
:100100000C946C080C9428020C942C020C94A303FD
:100110000C9409020C943F020C9424020C944702A4
:100120000C94BC020C9420020C94A4030C94430580
:100130000C9435020C942F020C945B0200000A0B05
:1001400002090C0D0E080703040100000000000066
:10015000000000000000000000000000000000009F
:10016000000000000000000012111000000000005C
:10017000000000000000000000000000000000007F
:10018000000000002200250028002B002E00310076
:10019000340002010000050108010B0100002100EC
:1001A000240027002A002D00300033000101000048
:1001B000040107010A0105050505070508080808E7
:1001C000020202020A0A08080404040401010101EF
:1001D00001010101030303030303030304070707EA
:1001E0000C0C0C0C0C0C0C0C02020202060606068F
:1001F000060606060B0B0B0B0B0B0B0B010210205C
:10020000200808102040102040800201020108044C
:1002100002010102040810204080804020100804E0
:100220000201800402018040201008040201080439
:10023000020101020408102040800102040810207D
:1002400040806C0811241FBECFEFD1E2DEBFCDBFCE
:1002500000E00CBF12E0A0E0B2E0E4EDF6E100E067
:100260000BBF02C007900D92AA38B107D9F723E05F
:10027000AAE8B2E001C01D92A334B207E1F711E091
:10028000C2E2D1E000E006C021970109802FFE0103
:100290000E94600BC132D10780E00807A9F70E94D5
:1002A0004B060C94680B0C94000090E0FC01E450A9
:1002B000FE4F24918A549E4FFC018491882399F02B
:1002C00090E0880F991FFC01E456FE4FA591B49170
:1002D000FC01EE57FE4F859194918FB7F894EC9105
:1002E000E22BEC938FBF08958F929F92AF92BF92B3
:1002F000FF920F931F93CF93DF93F09028032FE289
:100300002F1508F44CC020912A0308E512E0021BC7
:10031000110927FD1395000F111F000F111F2091C8
:100320002903C8E8D0E0C21BD10927FDD395CC0F23
:10033000DD1FCC0FDD1F4E010D2E000CAA08BB08DF
:100340009801012E000C440B550B281939094A0954
:100350005B09DC010E94DF0824EB30E040E050E064
:100360000E94B508820E931EA41EB51E8C169D0613
:100370002CF0E801801691060CF4E4012297CC0FD2
:10038000DD1F2FB7F8948F2D90E0FC01EE0FFF1FBB
:10039000E80FF91FE856FD4FD283C1832FBFDF91CD
:1003A000CF911F910F91FF90BF90AF909F908F9032
:1003B0000895282F30E0F901E45CFE4F9491F90193
:1003C000E450FE4F44912A543E4FF90124912223D8
:1003D00009F435C0992311F191509231F8F4E92FC5
:1003E000F0E08827E950FE4F8F4F0C94600B2802F5
:1003F0002C020902200224020E022F0235023902C9
:100400003F02430247024D0251020E0255025B02B7
:100410005F02809180008F7780938000E22FF0E070
:10042000EE0FFF1FEE57FE4FA591B4918FB7F894D2
:10043000EC91611148C040954E234C938FBF0895B5
:10044000809180008F7DE8CF80918000877FE4CF0E
:1004500084B58F7784BDE2CF84B58F7DFBCF80914B
:10046000B0008F778093B000D9CF8091B0008F7D9E
:10047000F9CF809190008F7780939000CFCF8091BB
:1004800090008F7DF9CF80919000877FF5CF80918C
:10049000A0008F778093A000C1CF8091A0008F7DB6
:1004A000F9CF8091A000877FF5CF809120018F77D1
:1004B00080932001B3CF809120018F7DF9CF80916F
:1004C0002001877FF5CF4E2BB8CF3FB7F8948091AE
:1004D000940290919502A0919602B091970226B550
:1004E000A89B05C02F3F19F00196A11DB11D3FBF6C
:1004F000BA2FA92F982F8827BC01CD01620F711D3B
:10050000811D911D42E0660F771F881F991F4A9534
:10051000D1F708958F929F92AF92BF92CF92DF92C0
:10052000EF92FF924B015C010E9465026B017C011E
:100530000E9465026C197D098E099F09683E73400F
:1005400081059105A8F321E0821A9108A108B1085C
:1005500088EEC80E83E0D81EE11CF11C81149104C2
:10056000A104B10429F7FF90EF90DF90CF90BF90E6
:10057000AF909F908F900895AF92BF92CF92DF92ED
:10058000EF92FF920F931F93CF93DF936C017B0148
:100590008B01040F151FEB015E01AE18BF08C017D9
:1005A000D10759F06991D601ED91FC910190F0814C
:1005B000E02DC6011995892B79F7C501DF91CF91FF
:1005C0001F910F91FF90EF90DF90CF90BF90AF9071
:1005D0000895AF92BF92CF92DF92EF92FF920F9366
:1005E0001F93CF93DF936B017A01EC01C557DD4F69
:1005F00028813CE0389F8001399F100D1124A09084
:100600008A02B12C27FF1FC0FB0111821082888152
:100610008F5F888388819801280F311D87FD3A9567
:10062000F6012A153B051CF488818C30C4F18081C9
:100630009181049680349C4908F473C0F60180814E
:100640009181049670C088819801280F311D87FD23
:100650003A952A153B05DCF68881A801480F511D03
:1006600087FD5A95FA01EE0FFF1FE40FF51FE856BC
:10067000FD4F808186FFCBCF8881F801E80FF11D07
:1006800087FDFA95CF01EE0FFF1FE80FF91FE8561F
:10069000FD4F808160E08F730E94D901B8CF8081C7
:1006A00091812881A801420F511D27FD5A959A0179
:1006B000FA01EE0FFF1FE20FF31FE856FD4F2181F5
:1006C0003281820F931FF701918380838881980183
:1006D000280F311D87FD3A95F901EE0FFF1FE20F3C
:1006E000F31FE856FD4F808186FF22C08881080FE6
:1006F000111D87FD1A95F801EE0FFF1FE00FF11F86
:10070000E856FD4F808161E08F73DF91CF911F919B
:100710000F91FF90EF90DF90CF90BF90AF900C942F
:10072000D90180E49CE9F701918380838FEF88836E
:10073000DF91CF911F910F91FF90EF90DF90CF90BD
:10074000BF90AF900895089590E080E00895FC0177
:1007500001900020E9F73197AF01481B590BBC010C
:100760008BE293E00C94BC028F929F92AF92BF9267
:100770000F931F93CF93DF93CDB7DEB7A1970FB63B
:10078000F894DEBF0FBECDBF19A2423008F44AE094
:100790008E010F5D1F4F842E912CB12CA12CA50131
:1007A00094010E94E708E62FB901CA01EA30F4F487
:1007B000E05DD801EE938D01232B242B252B79F7B7
:1007C00090E080E0109719F0CD010E94A703A19658
:1007D0000FB6F894DEBF0FBECDBFDF91CF911F9152
:1007E0000F91BF90AF909F908F900895E95CE1CFFB
:1007F000CF93DF93EC0160E08E810E94D90161E02C
:100800008E810E94D90160E08E810E94D9018BE81F
:1008100091E00197F1F7DF91CF910895CF92DF92A8
:10082000EF92FF920F931F93CF93DF936C017C01A4
:1008300087E0E80EF11CD0E0C0E0062F10E0B80120
:100840000C2E02C0759567950A94E2F76170F70166
:1008500081917F010E94D9012196C430D10579F799
:10086000C601DF91CF911F910F91FF90EF90DF9024
:10087000CF900C94F803CF92DF92EF92FF920F93F8
:100880001F93CF93DF93EC01F62E642F8C810E948F
:10089000D9018D818F3F19F060E00E94D9010F2DA1
:1008A00010E08F8584FF25C06E0187E0C80ED11C43
:1008B000F12CE12CB8010E2C02C0759567950A94B5
:1008C000E2F76170F60181916F010E94D901FFEF9B
:1008D000EF1AFF0A88E0E816F10461F7CE01DF9114
:1008E000CF911F910F91FF90EF90DF90CF900C94DC
:1008F000F803B80184E0759567958A95E1F7CE0114
:100900000E940E046F2DCE01DF91CF911F910F91A8
:10091000FF90EF90DF90CF900C940E0440E0682F92
:100920008BE293E00C943B04CF93DF93613029F08A
:1009300090913A03986090933A0360933E0310922B
:100940003F0390E49093400380934103805C809345
:10095000420380912F030E945501809130038F3F05
:1009600011F00E945501809131030E945501CBE2A4
:10097000D3E09E012B52334080913A0384FD0AC09C
:1009800084E090E02196281739073CF48E810E947C
:100990005501EFCF88E090E0F5CF8BE39DE0019724
:1009A000F1F760E080912F030E94D90160E080910F
:1009B00031030E94D901809130038F3F19F060E02C
:1009C0000E94D90180913A0384FD39C063E08BE233
:1009D00093E00E940E04CBE4D6E4CE010197F1F738
:1009E00063E08BE293E00E940E042197F1F763E04D
:1009F0008BE293E00E940E0483E592E00197F1F709
:100A000062E08BE293E00E940E0480913A038062E0
:100A10000E948E0484E080933B038CE00E948E044D
:100A200081E00E948E048BE39FE10197F1F782E061
:100A300080933C0386E0DF91CF910C948E0480621A
:100A40000E948E048BE496E40197F1F780913A03BB
:100A500080620E948E0483E592E00197F1F7809115
:100A60003A0380620E948E04D0CF90913E03891792
:100A700010F08FEF890FE82FF0E0E55DFC4F8489DF
:100A800080680C948E0441E00E943B0481E090E079
:100A900008951F920F920FB60F9211242F933F9338
:100AA0008F939F93AF93BF93809190029091910207
:100AB000A0919202B091930230918F0223E0230F14
:100AC0002D3758F50196A11DB11D20938F028093FB
:100AD000900290939102A0939202B093930280911E
:100AE000940290919502A0919602B091970201967E
:100AF000A11DB11D8093940290939502A09396023C
:100B0000B0939702BF91AF919F918F913F912F9199
:100B10000F900FBE0F901F90189526E8230F029696
:100B2000A11DB11DD2CF1F920F920FB60F921124AB
:100B30000BB60F922F933F934F935F936F937F93D7
:100B40008F939F93AF93BF93EF93FF9348E251E04E
:100B500064E271E090E080E00E94E902FF91EF9191
:100B6000BF91AF919F918F917F916F915F914F91C5
:100B70003F912F910F900BBE0F900FBE0F901F90C3
:100B800018951F920F920FB60F9211240BB60F9269
:100B90002F933F934F935F936F937F938F939F9385
:100BA000AF93BF93EF93FF9348EA50E064EA70E09D
:100BB00083E090E00E94E902FF91EF91BF91AF9135
:100BC0009F918F917F916F915F914F913F912F9165
:100BD0000F900BBE0F900FBE0F901F9018951F9295
:100BE0000F920FB60F9211240BB60F922F933F93D3
:100BF0004F935F936F937F938F939F93AF93BF9325
:100C0000EF93FF9348E950E064E970E082E090E000
:100C10000E94E902FF91EF91BF91AF919F918F9157
:100C20007F916F915F914F913F912F910F900BBEEC
:100C30000F900FBE0F901F9018951F920F920FB636
:100C40000F9211240BB60F922F933F934F935F9304
:100C50006F937F938F939F93AF93BF93EF93FF9384
:100C600048E850E064E870E081E090E00E94E9022A
:100C7000FF91EF91BF91AF919F918F917F916F9174
:100C80005F914F913F912F910F900BBE0F900FBE30
:100C90000F901F901895789484B5826084BD84B5B8
:100CA000816084BD85B5826085BD85B5816085BD67
:100CB00080916E00816080936E001092810080911F
:100CC00081008260809381008091810081608093A7
:100CD0008100809180008160809380008091B100CC
:100CE00084608093B1008091B00081608093B000F7
:100CF0008091910082608093910080919100816049
:100D00008093910080919000816080939000809109
:100D1000A10082608093A1008091A10081608093F6
:100D2000A1008091A00081608093A00080912101AA
:100D30008260809321018091210181608093210153
:100D40008091200181608093200180917A008460ED
:100D500080937A0080917A00826080937A008091FB
:100D60007A00816080937A0080917A008068809315
:100D70007A001092C10085E00E94550180912803FD
:100D8000803308F051C086E00E945501809128030D
:100D9000282F30E0F901EE0FFF1FE20FF31FE85696
:100DA000FD4F9081907C9660908310922903109261
:100DB0002A032CE0622F0E94540B829FB001112461
:100DC00030E020E0AB01420F531FFA01EE0FFF1F8E
:100DD000E40FF51FE856FD4F908196FD17C02F5F79
:100DE0003F4F2C30310571F7813009F0A4C01092CB
:100DF000800082E080938100109285001092840030
:100E0000B19A80916F00826080936F00E091280317
:100E10008E2F90E0FC01EE0FFF1FE80FF91FE85640
:100E2000FD4F80818064808364E084E10E949404AB
:100E300080E00E9435058CE092E00E94A7036CEDF3
:100E400075E080E090E00E948A0281E00E948E04BA
:100E50008BE39FE10197F1F710E4C0E0D0E08091CF
:100E60007B00877F80937B0010937C0080917A00C9
:100E7000806480937A0080917A0086FDFCCF609137
:100E8000780070917900072E000C880B990B0E9456
:100E90002D0A20E030E048E452E40E94E20A20E01B
:100EA00030EC4FE754E40E948A096B017C0180E03A
:100EB0000E94350588E192E00E94A703A7019601F0
:100EC000C701B6010E944F0B882309F460C08FE16F
:100ED00092E00E94A7038BE292E00E94A70381E0C8
:100EE0000E94350520E030E048EC51E4C701B6012E
:100EF0000E94850987FFC3C060E085E00E94D90198
:100F000090E080E00E94740183E392E00E94A703D6
:100F100082E00E94350584E492E00E94A7036CE21F
:100F200071E080E090E00E948A02209709F497CF58
:100F30000E94000094CF823061F410929000809360
:100F40009100109295001092940088BB80937100DC
:100F50005DCF833069F41092A00082E08093A100FD
:100F60001092A5001092A40089BB809372004ECF0E
:100F700081114CCF1092200182E0809321011092C8
:100F80002501109224018ABB809373003FCF460154
:100F90005701E894B7F82FEF3FEF4FE75FE7C50140
:100FA000B4010E944F0B81110DC02FEF3FEF4FE7AF
:100FB0005FE7C501B4010E94850918161CF483E29D
:100FC00092E087CF2FEF3FEF4FE75FE4C701B60115
:100FD0000E94DD0A18161CF487E292E07ACF2FEF08
:100FE0003FEF4FE75FECC701B6010E94850987FD1F
:100FF000F3CF20E030E0A901C701B6010E948509C6
:1010000087FF3AC041E06DE28BE293E00E943B042F
:10101000C701B60190582DEC3CEC4CE45DE30E9416
:1010200019092B013C010E94FC094B015C010E9443
:101030002B0A9B01AC01C301B2010E9418092B01CC
:101040003C014AE0C501B4010E94B40341E06EE2F4
:101050008BE293E00E943B0420E030E040E251E468
:10106000C301B2010E94E20A0E94FC0990E080E004
:101070004AE00E94B4032FCFC701B601CCCF20E0D5
:1010800030E040EF51E4C701B6010E94850961E0FC
:1010900087FF11C085E00E94D9018AE590E00E9497
:1010A000740186E592E00E94A70382E00E94350564
:1010B00087E692E032CF85E00E94D90184EB90E090
:1010C0000E94740186E592E00E94A70382E00E94DC
:1010D000350588E792E021CFCF9310922E0310922E
:1010E0002D0384E092E090932C0380932B038FE1F7
:1010F00080932F03CFEFC093300383E280933103BB
:101100008DE2809332038FE28093330381E38093F7
:10111000340383E380933503109236031092370330
:10112000109238031092390310923A0361E080E183
:101130000E94940480918A028033A0F491E0980F79
:1011400090938A028093280390E0FC01EE0FFF1F2A
:10115000E80FF91FE856FD4F88EB9BE092838183EF
:10116000CF910895C0932803FBCF052E97FB1EF463
:1011700000940E94CC0857FD07D00E94E70807FCA6
:1011800003D04EF40C94CC085095409530952195A1
:101190003F4F4F4F5F4F08959095809570956195A3
:1011A0007F4F8F4F9F4F08950E940909A59F900D73
:1011B000B49F900DA49F800D911D11240895B7FF39
:1011C0000C94D4080E94D408821B930B0895A1E2CA
:1011D0001A2EAA1BBB1BFD010DC0AA1FBB1FEE1FB1
:1011E000FF1FA217B307E407F50720F0A21BB30BFC
:1011F000E40BF50B661F771F881F991F1A9469F778
:1012000060957095809590959B01AC01BD01CF01D3
:101210000895A29FB001B39FC001A39F700D811DCF
:101220001124911DB29F700D811D1124911D0895EF
:101230005058BB27AA270E9430090C94A30A0E9489
:10124000950A38F00E949C0A20F039F49F3F19F467
:1012500026F40C94920A0EF4E095E7FB0C948C0AA9
:10126000E92F0E94B40A58F3BA176207730784077C
:10127000950720F079F4A6F50C94D60A0EF4E095C3
:101280000B2EBA2FA02D0B01B90190010C01CA0140
:10129000A0011124FF27591B99F0593F50F4503EEB
:1012A00068F11A16F040A22F232F342F4427585FDD
:1012B000F3CF469537952795A795F0405395C9F7F5
:1012C0007EF41F16BA0B620B730B840BBAF09150AD
:1012D000A1F0FF0FBB1F661F771F881FC2F70EC04C
:1012E000BA0F621F731F841F48F48795779567951F
:1012F000B795F7959E3F08F0B0CF9395880F08F00B
:101300009927EE0F9795879508950E94680A08F42B
:1013100081E008950E949E090C94A30A0E949C0AF1
:1013200058F00E94950A40F029F45F3F29F00C9490
:101330008C0A51110C94D70A0C94920A0E94B40A98
:1013400068F39923B1F3552391F3951B550BBB27F4
:10135000AA2762177307840738F09F5F5F4F220F39
:10136000331F441FAA1FA9F335D00E2E3AF0E0E830
:1013700032D091505040E695001CCAF72BD0FE2F7A
:1013800029D0660F771F881FBB1F2617370748070E
:10139000AB07B0E809F0BB0B802DBF01FF279358C6
:1013A0005F4F3AF09E3F510578F00C948C0A0C94F4
:1013B000D70A5F3FE4F3983ED4F386957795679517
:1013C000B795F7959F5FC9F7880F911D96958795FB
:1013D00097F90895E1E0660F771F881FBB1F62171A
:1013E00073078407BA0720F0621B730B840BBA0BD8
:1013F000EE1F88F7E09508950E94BC0A88F09F5779
:1014000098F0B92F9927B751B0F0E1F0660F771F28
:10141000881F991F1AF0BA95C9F714C0B13091F01E
:101420000E94D60AB1E008950C94D60A672F782F4F
:101430008827B85F39F0B93FCCF3869577956795E3
:10144000B395D9F73EF490958095709561957F4F4F
:101450008F4F9F4F0895E89409C097FB3EF49095F5
:101460008095709561957F4F8F4F9F4F9923A9F07D
:10147000F92F96E9BB279395F6958795779567950C
:10148000B795F111F8CFFAF4BB0F11F460FF1BC050
:101490006F5F7F4F8F4F9F4F16C0882311F096E9E3
:1014A00011C0772321F09EE8872F762F05C0662391
:1014B00071F096E8862F70E060E02AF09A95660F4A
:1014C000771F881FDAF7880F9695879597F9089503
:1014D000990F0008550FAA0BE0E8FEEF1616170645
:1014E000E807F907C0F012161306E407F50798F0AD
:1014F000621B730B840B950B39F40A2661F0232BC6
:10150000242B252B21F408950A2609F4A140A69541
:101510008FEF811D811D089597F99F6780E870E026
:1015200060E008959FEF80EC089500240A94161659
:10153000170618060906089500240A9412161306C1
:10154000140605060895092E0394000C11F488234F
:1015500052F0BB0F40F4BF2B11F460FF04C06F5F6B
:101560007F4F8F4F9F4F089557FD9058440F551F41
:1015700059F05F3F71F04795880F97FB991F61F015
:101580009F3F79F087950895121613061406551F8C
:10159000F2CF4695F1DF08C0161617061806991FF8
:1015A000F1CF86957105610508940895E894BB27ED
:1015B00066277727CB0197F908950E94680A08F4F7
:1015C0008FEF08950E94F50A0C94A30A0E94950AD1
:1015D00038F00E949C0A20F0952311F00C948C0A9C
:1015E0000C94920A11240C94D70A0E94B40A70F346
:1015F000959FC1F3950F50E0551F629FF001729FB8
:10160000BB27F00DB11D639FAA27F00DB11DAA1FC6
:10161000649F6627B00DA11D661F829F2227B00D13
:10162000A11D621F739FB00DA11D621F839FA00D9E
:10163000611D221F749F3327A00D611D231F849FEE
:10164000600D211D822F762F6A2F11249F57504045
:101650009AF0F1F088234AF0EE0FFF1FBB1F661FC0
:10166000771F881F91505040A9F79E3F510580F089
:101670000C948C0A0C94D70A5F3FE4F3983ED4F3A1
:10168000869577956795B795F795E7959F5FC1F72D
:10169000FE2B880F911D9695879597F908950E94C6
:1016A000680A880B990B0895991B79E004C0991F6B
:1016B000961708F0961B881F7A95C9F780950895AC
:1016C000EE0FFF1F881F8BBF0790F691E02D199436
:0416D000F894FFCFBC
:1016D400000000004305BC02A403A303496E766521
:1016E400726E616465726F0054656D703A20006EAD
:1016F400616E00696E66006F7666002043202020CC
:1017040020200056656E74696C61646F723A204FD4
:101714004646200056656E74616E613A20436572D8
:1017240072616461200056656E74696C61646F72E5
:101734003A204F4E20200056656E74616E613A2047
:1017440053656D692020200056656E74616E613AA0
:0A17540020416269657274610000B3
:00000001FF
