:100000000C9422010C9453010C9453010C94530151
:100010000C9453010C9453010C9453010C94530110
:100020000C9453010C9453010C9453010C94530100
:100030000C9453010C9453010C9453010C945301F0
:100040000C9453010C9453010C9453010C945301E0
:100050000C9453010C9453010C9453010C941D0403
:100060000C9453010C9453010C9453010C945301C0
:100070000C9453010C9453010C9453010C945301B0
:100080000C9453010C9453010C9453010C945301A0
:100090000C9453010C9453010C9453010C94530190
:1000A0000C9453010C9453010C9453010C94530180
:1000B0000C9453010C9453010C9453010C94530170
:1000C0000C9453010C9453010C9453010C94530160
:1000D0000C9453010C9453010C9453010C94530150
:1000E0000C9453010C9485020C94E2010C94EC01E5
:1000F0000C94C3010C94C7010C94DA010C94F00128
:100100000C94DE010C9457020C94FA010C94A90192
:100110000C94A4010C9417040C94BF010C94E505F5
:100120000C94D0010C94CA010C94BB010C94D40122
:100130000C94E8010C9484020C94F60100000A0B64
:1001400002090C0D0E080703040100000000000066
:10015000000000000000000000000000000000009F
:10016000000000000000000012111000000000005C
:10017000000000000000000000000000000000007F
:10018000000000002200250028002B002E00310076
:10019000340002010000050108010B0100002100EC
:1001A000240027002A002D00300033000101000048
:1001B000040107010A0105050505070508080808E7
:1001C000020202020A0A08080404040401010101EF
:1001D00001010101030303030303030304070707EA
:1001E0000C0C0C0C0C0C0C0C02020202060606068F
:1001F000060606060B0B0B0B0B0B0B0B010210205C
:10020000200808102040102040800201020108044C
:1002100002010102040810204080804020100804E0
:100220000201800402018040201008040201080439
:10023000020101020408102040800102040810207D
:100240004080E50511241FBECFEFD1E2DEBFCDBF58
:1002500000E00CBF12E0A0E0B2E0E6EDF0E100E06B
:100260000BBF02C007900D92A035B107D9F722E06D
:10027000A0E5B2E001C01D92A137B207E1F711E09D
:10028000C2E2D1E000E006C021970109802FFE0103
:100290000E946108C132D10780E00807A9F70E94D7
:1002A00067040C9469080C94000090E0FC01E45091
:1002B000FE4F24918A549E4FFC018491882399F02B
:1002C00090E0880F991FFC01E456FE4FA591B49170
:1002D000FC01EE57FE4F859194918FB7F894EC9105
:1002E000E22BEC938FBF0895282F30E0F901E45CF6
:1002F000FE4F9491F901E450FE4F44912A543E4F31
:10030000F9012491222309F435C0992311F1915068
:100310009231F8F4E92FF0E08827EE56FE4F8F4F28
:100320000C946108C301C701A401BB01BF01A9016D
:10033000CA01D001D401DA01DE01E201E801EC01D9
:10034000A901F001F601FA01809180008F77809376
:100350008000E22FF0E0EE0FFF1FEE57FE4FA59159
:10036000B4918FB7F894EC91611148C040954E2339
:100370004C938FBF0895809180008F7DE8CF80914E
:100380008000877FE4CF84B58F7784BDE2CF84B5CA
:100390008F7DFBCF8091B0008F778093B000D9CF55
:1003A0008091B0008F7DF9CF809190008F778093FE
:1003B0009000CFCF809190008F7DF9CF80919000F9
:1003C000877FF5CF8091A0008F778093A000C1CF69
:1003D0008091A0008F7DF9CF8091A000877FF5CF1D
:1003E000809120018F7780932001B3CF80912001ED
:1003F0008F7DF9CF80912001877FF5CF4E2BB8CF2D
:100400003FB7F8948091550290915602A0915702FF
:10041000B091580226B5A89B05C02F3F19F0019650
:10042000A11DB11D3FBFBA2FA92F982F8827BC014E
:10043000CD01620F711D811D911D42E0660F771F76
:10044000881F991F4A95D1F708958F929F92AF9276
:10045000BF92CF92DF92EF92FF924B015C010E941C
:1004600000026B017C010E9400026C197D098E095B
:100470009F09683E734081059105A8F321E0821A27
:100480009108A108B10888EEC80E83E0D81EE11CCF
:10049000F11C81149104A104B10429F7FF90EF909D
:1004A000DF90CF90BF90AF909F908F900895AF92C4
:1004B000BF92CF92DF92EF92FF920F931F93CF9351
:1004C000DF936C017B018B01040F151FEB015E01B3
:1004D000AE18BF08C017D10759F06991D601ED9148
:1004E000FC910190F081E02DC6011995892B79F7D7
:1004F000C501DF91CF911F910F91FF90EF90DF9099
:10050000CF90BF90AF900895089590E080E0089557
:10051000FC0101900020E9F73197AF01481B590B0E
:10052000BC0189E592E00C9457028F929F92AF92A2
:10053000BF920F931F93CF93DF93CDB7DEB7A197F1
:100540000FB6F894DEBF0FBECDBF19A2423008F43B
:100550004AE08E010F5D1F4F842E912CB12CA12CEF
:10056000A50194010E943F08E62FB901CA01EA30B3
:10057000F4F4E05DD801EE938D01232B242B252B81
:1005800079F790E080E0109719F0CD010E94880281
:10059000A1960FB6F894DEBF0FBECDBFDF91CF910D
:1005A0001F910F91BF90AF909F908F900895E95C3D
:1005B000E1CFCF93DF93EC0160E08E810E94740164
:1005C00061E08E810E94740160E08E810E9474015E
:1005D0008BE891E00197F1F7DF91CF910895CF92E9
:1005E000DF92EF92FF920F931F93CF93DF936C01F3
:1005F0007C0187E0E80EF11CD0E0C0E0062F10E09F
:10060000B8010C2E02C0759567950A94E2F76170E7
:10061000F70181917F010E9474012196C430D105B8
:1006200079F7C601DF91CF911F910F91FF90EF9065
:10063000DF90CF900C94D902CF92DF92EF92FF928D
:100640000F931F93CF93DF93EC01F62E642F8C81D1
:100650000E9474018D818F3F19F060E00E94740147
:100660000F2D10E08F8584FF25C06E0187E0C80E36
:10067000D11CF12CE12CB8010E2C02C075956795A8
:100680000A94E2F76170F60181916F010E94740192
:10069000FFEFEF1AFF0A88E0E816F10461F7CE01D8
:1006A000DF91CF911F910F91FF90EF90DF90CF904E
:1006B0000C94D902B80184E0759567958A95E1F7A5
:1006C000CE010E94EF026F2DCE01DF91CF911F91DD
:1006D0000F91FF90EF90DF90CF900C94EF0240E0ED
:1006E000682F89E592E00C941C03CF93DF9382304E
:1006F00029F49091680298609093680280936C024C
:1007000010926D0280E480936E0280E180936F020C
:1007100080E58093700280915D020E945501809176
:100720005E028F3F11F00E94550180915F020E948E
:100730005501C9E5D2E09E012955324080916802F9
:1007400084FD0AC084E090E02196281739073CF424
:100750008E810E945501EFCF88E090E0F5CF8BE3CA
:100760009DE00197F1F760E080915D020E947401C5
:1007700060E080915F020E94740180915E028F3F71
:1007800019F060E00E9474018091680284FD39C014
:1007900063E089E592E00E94EF02CBE4D6E4CE016B
:1007A0000197F1F763E089E592E00E94EF0221975B
:1007B000F1F763E089E592E00E94EF0283E592E0C1
:1007C0000197F1F762E089E592E00E94EF028091E3
:1007D000680280620E946F0384E0809369028CE06B
:1007E0000E946F0381E00E946F038BE39FE10197FA
:1007F000F1F782E080936A0286E0DF91CF910C945A
:100800006F0380620E946F038BE496E40197F1F717
:100810008091680280620E946F0383E592E00197F5
:10082000F1F78091680280620E946F03D0CF41E0AF
:100830000E941C0381E090E008951F920F920FB672
:100840000F9211242F933F938F939F93AF93BF9356
:100850008091510290915202A0915302B0915402A2
:100860003091500223E0230F2D3758F50196A11D3A
:10087000B11D209350028093510290935202A09395
:100880005302B09354028091550290915602A09168
:100890005702B09158020196A11DB11D80935502D7
:1008A00090935602A0935702B0935802BF91AF9114
:1008B0009F918F913F912F910F900FBE0F901F909E
:1008C000189526E8230F0296A11DB11DD2CF78946A
:1008D00084B5826084BD84B5816084BD85B5826045
:1008E00085BD85B5816085BD80916E0081608093F6
:1008F0006E0010928100809181008260809381005F
:10090000809181008160809381008091800081606E
:10091000809380008091B10084608093B1008091C9
:10092000B00081608093B0008091910082608093DC
:10093000910080919100816080939100809190005E
:100940008160809390008091A10082608093A100DB
:100950008091A10081608093A1008091A0008160BE
:100960008093A00080912101826080932101809179
:100970002101816080932101809120018160809319
:10098000200180917A00846080937A0080917A00BF
:10099000826080937A0080917A00816080937A00EF
:1009A00080917A00806880937A001092C10085E07F
:1009B0000E94550182E00E9475038CE092E00E9443
:1009C00088026CED75E080E090E00E94250281E0F5
:1009D0000E946F038BE39FE10197F1F710E4C0E001
:1009E000D0E080917B00877F80937B0010937C0018
:1009F00080917A00806480937A0080917A0086FDED
:100A0000FCCF6091780070917900072E000C880B64
:100A1000990B0E94180720E030E048E452E40E945D
:100A2000CD0720E030EC4FE754E40E9475066B01DF
:100A30007C01E1E080916C028111E0E0E195F0E061
:100A4000E75AFD4F848980680E946F0388E192E035
:100A50000E948802A7019601C701B6010E943A08C8
:100A6000882399F18FE192E00E9488028BE292E064
:100A70000E948802E0916C02E23008F09EC0E150D2
:100A8000F0E0E75AFD4F848980680E946F0320E000
:100A900030E040EF51E4C701B6010E94C80787FD6E
:100AA0008EC081E392E00E94880261E085E00E94AE
:100AB00074016CE271E080E090E00E9425022097D2
:100AC00009F48FCF0E9400008CCF46015701E894B3
:100AD000B7F82FEF3FEF4FE75FE7C501B4010E9482
:100AE0003A0881110DC02FEF3FEF4FE75FE7C501D7
:100AF000B4010E94700618161CF483E292E0B4CF91
:100B00002FEF3FEF4FE75FE4C701B6010E94C80730
:100B100018161CF487E292E0A7CF2FEF3FEF4FE7C4
:100B20005FECC701B6010E94700687FDF3CF20E09D
:100B300030E0A901C701B6010E94700687FF3AC0E4
:100B400041E06DE289E592E00E941C03C701B60115
:100B500090582DEC3CEC4CE45DE30E9404062B0124
:100B60003C010E94E7064B015C010E9416079B01B5
:100B7000AC01C301B2010E9403062B013C014AE013
:100B8000C501B4010E94950241E06EE289E592E060
:100B90000E941C0320E030E040E251E4C301B201B6
:100BA0000E94CD070E94E70690E080E04AE00E94A4
:100BB00095025CCFC701B601CCCFE1E061CF80E404
:100BC00092E00E94880260E071CFE9E5F2E01382D2
:100BD000128284E092E0918380838FE184838FEF9F
:100BE000858383E286838DE287838FE2808781E33A
:100BF000818783E382871386148615861686178677
:100C000081E00C9475035058BB27AA270E941B064D
:100C10000C948E070E94800738F00E94870720F00E
:100C200039F49F3F19F426F40C947D070EF4E095F7
:100C3000E7FB0C947707E92F0E949F0758F3BA1738
:100C4000620773078407950720F079F4A6F50C94E2
:100C5000C1070EF4E0950B2EBA2FA02D0B01B901A0
:100C600090010C01CA01A0011124FF27591B99F022
:100C7000593F50F4503E68F11A16F040A22F232F2E
:100C8000342F4427585FF3CF469537952795A7957E
:100C9000F0405395C9F77EF41F16BA0B620B730B25
:100CA000840BBAF09150A1F0FF0FBB1F661F771F96
:100CB000881FC2F70EC0BA0F621F731F841F48F44B
:100CC000879577956795B795F7959E3F08F0B0CFD4
:100CD0009395880F08F09927EE0F979587950895BB
:100CE0000E94530708F481E008950E9489060C943D
:100CF0008E070E94870758F00E94800740F029F471
:100D00005F3F29F00C94770751110C94C2070C94A3
:100D10007D070E949F0768F39923B1F3552391F350
:100D2000951B550BBB27AA2762177307840738F05A
:100D30009F5F5F4F220F331F441FAA1FA9F335D0B7
:100D40000E2E3AF0E0E832D091505040E695001C6B
:100D5000CAF72BD0FE2F29D0660F771F881FBB1F25
:100D6000261737074807AB07B0E809F0BB0B802D03
:100D7000BF01FF2793585F4F3AF09E3F510578F02F
:100D80000C9477070C94C2075F3FE4F3983ED4F3CA
:100D9000869577956795B795F7959F5FC9F7880F03
:100DA000911D9695879597F90895E1E0660F771F55
:100DB000881FBB1F621773078407BA0720F0621BE6
:100DC000730B840BBA0BEE1F88F7E09508950E9411
:100DD000A70788F09F5798F0B92F9927B751B0F01F
:100DE000E1F0660F771F881F991F1AF0BA95C9F7AF
:100DF00014C0B13091F00E94C107B1E008950C9485
:100E0000C107672F782F8827B85F39F0B93FCCF337
:100E1000869577956795B395D9F73EF4909580952B
:100E2000709561957F4F8F4F9F4F0895E89409C04B
:100E300097FB3EF490958095709561957F4F8F4F0D
:100E40009F4F9923A9F0F92F96E9BB279395F69523
:100E5000879577956795B795F111F8CFFAF4BB0FA1
:100E600011F460FF1BC06F5F7F4F8F4F9F4F16C005
:100E7000882311F096E911C0772321F09EE8872F8F
:100E8000762F05C0662371F096E8862F70E060E04B
:100E90002AF09A95660F771F881FDAF7880F9695C4
:100EA000879597F90895990F0008550FAA0BE0E868
:100EB000FEEF16161706E807F907C0F0121613061C
:100EC000E407F50798F0621B730B840B950B39F45C
:100ED0000A2661F0232B242B252B21F408950A26C2
:100EE00009F4A140A6958FEF811D811D089597F902
:100EF0009F6780E870E060E008959FEF80EC0895C0
:100F000000240A94161617061806090608950024E8
:100F10000A9412161306140605060895092E039462
:100F2000000C11F4882352F0BB0F40F4BF2B11F4D6
:100F300060FF04C06F5F7F4F8F4F9F4F089557FD35
:100F40009058440F551F59F05F3F71F04795880F37
:100F500097FB991F61F09F3F79F0879508951216CE
:100F600013061406551FF2CF4695F1DF08C016167A
:100F700017061806991FF1CF86957105610508942B
:100F80000895E894BB2766277727CB0197F9089542
:100F90000E94530708F48FEF08950E94E0070C9415
:100FA0008E070E94800738F00E94870720F0952363
:100FB00011F00C9477070C947D0711240C94C20750
:100FC0000E949F0770F3959FC1F3950F50E0551F46
:100FD000629FF001729FBB27F00DB11D639FAA278E
:100FE000F00DB11DAA1F649F6627B00DA11D661FDD
:100FF000829F2227B00DA11D621F739FB00DA11DFE
:10100000621F839FA00D611D221F749F3327A00DB7
:10101000611D231F849F600D211D822F762F6A2F53
:1010200011249F5750409AF0F1F088234AF0EE0FB8
:10103000FF1FBB1F661F771F881F91505040A9F7E5
:101040009E3F510580F00C9477070C94C2075F3FD8
:10105000E4F3983ED4F3869577956795B795F79521
:10106000E7959F5FC1F7FE2B880F911D9695879599
:1010700097F908950E945307880B990B0895A1E2F0
:101080001A2EAA1BBB1BFD010DC0AA1FBB1FEE1F02
:10109000FF1FA217B307E407F50720F0A21BB30B4D
:1010A000E40BF50B661F771F881F991F1A9469F7C9
:1010B00060957095809590959B01AC01BD01CF0125
:1010C0000895EE0FFF1F881F8BBF0790F691E02D4C
:0610D0001994F894FFCF13
:1010D600000000001704570285028402496E7665F7
:1010E600726E616465726F0054656D703A20006EB1
:1010F600616E00696E66006F7666002043202020D0
:101106000056656E74696C61646F72204F4E2000E4
:1011160056656E74696C61646F72204F46460000B6
:00000001FF
